:020000040000FA
:10000000816A836A9368956A0F0EC16E070EB46E9B
:10001000D70ED56E3F0E836E000E506F81B01CEF71
:1000200000F013EF00F049EC00F081A013EF00F0B6
:10003000050E506315D0F2D781A20EEF00F021EF2C
:1000400000F049EC00F081B221EF00F0000E5063A7
:1000500016D0E4D7050E506F4FEC00F0836EDED75C
:100060005051010F506F020DF3504FEC00F0836EB2
:10007000D5D7000E506F4FEC00F0836ECFD75051A4
:100080000108E86C506F020DF3504FEC00F0836EE6
:10009000C5D7D66A0A0E00D0D662FED71200F9265E
:0C00A0003F0C060C5B0C4F0C660C6D0C4A
:0200AC00000052
:020000040030CA
:0100010008F6
:0100020038C5
:010003001EDE
:010005008179
:010006008178
:010008000FE8
:01000900C036
:01000A000FE6
:01000B00E014
:01000C000FE4
:01000D0040B2
:00000001FF
