:020000040000FA
:10000000816A836A9368956A0F0EC16E070EB46E9B
:100010008150070B506F8150E842E842E842070BDD
:10002000516F81AE16EF00F034EF00F081AC1BEFA2
:1000300000F022EF00F05025020DF35037EC00F0F5
:10004000836EE6D7505D020DF350D8A830EF00F074
:100050002AEF00F0E86C37EC00F0E88E836ED8D71A
:1000600037EC00F0836ED4D7836A08EF00F0F926EE
:100070003F0C060C5B0C4F0C660C6D0C7D0C070CDA
:0E0080007F0C670C770C7C0C390C5E0C790C35
:02008E00000070
:020000040030CA
:0100010008F6
:0100020038C5
:010003001EDE
:010005008179
:010006008178
:010008000FE8
:01000900C036
:01000A000FE6
:01000B00E014
:01000C000FE4
:01000D0040B2
:00000001FF
